{
  "fileName": "Auth.sol",
  "contractName": "Auth",
  "source": "// contracts/access-control/Auth.sol\n// SPDX-License-Identifier: MIT\npragma solidity ^0.6.0;\n\n\ncontract Auth {\n    address private administrator;\n\n    constructor() public {\n        // Make the deployer of the contract the administrator\n        administrator = msg.sender;\n    }\n\n    function isAdministrator(address user) public view returns (bool) {\n        return user == administrator;\n    }\n}",
  "sourcePath": "contracts/access-control/Auth.sol",
  "abi": [
    {
      "inputs": [],
      "stateMutability": "nonpayable",
      "type": "constructor"
    },
    {
      "inputs": [
        {
          "internalType": "address",
          "name": "user",
          "type": "address"
        }
      ],
      "name": "isAdministrator",
      "outputs": [
        {
          "internalType": "bool",
          "name": "",
          "type": "bool"
        }
      ],
      "stateMutability": "view",
      "type": "function"
    }
  ],
  "bytecode": "0x608060405234801561001057600080fd5b50336000806101000a81548173ffffffffffffffffffffffffffffffffffffffff021916908373ffffffffffffffffffffffffffffffffffffffff160217905550610115806100606000396000f3fe6080604052348015600f57600080fd5b506004361060285760003560e01c80630a2eb30114602d575b600080fd5b606c60048036036020811015604157600080fd5b81019080803573ffffffffffffffffffffffffffffffffffffffff1690602001909291905050506086565b604051808215151515815260200191505060405180910390f35b60008060009054906101000a900473ffffffffffffffffffffffffffffffffffffffff1673ffffffffffffffffffffffffffffffffffffffff168273ffffffffffffffffffffffffffffffffffffffff1614905091905056fea264697066735822122093ef5ce0b57c0f064a9593fab2bc64b72cc118afc677b319ec8d9c871fc742ec64736f6c63430006080033",
  "compiler": {
    "name": "solc",
    "version": "0.6.8+commit.0bbfe453.Emscripten.clang",
    "optimizer": {
      "enabled": false,
      "runs": 200
    },
    "evmVersion": "petersburg"
  }
}